:020000040000fa
:080000000002040000000000f2
:020000040000fa
:10000800cc020000cc020000cc020000cc020000b0
:10001800cc020000cc020000cc020000cc020000a0
:10002800cc020000cc020000cc020000cc02000090
:10003800cc020000cc020000cc020000cc02000080
:020000040000fa
:020000040000fa
:10040000afd420000eff20000e0188000000000085
:1004100000012000200288000c000700002d2000b1
:10042000010020000f000700000020000000e00095
:100430000200320000000200000000004807020035
:10044000000000000040da000000fe002000200054
:100450000000e0000200320010002000900188003f
:1004600000000600a1028800800078000000eb0078
:100470001a003700e280400054a0b4009101ba0095
:10048000e280400054a0b4009102ba00e280400033
:1004900054a0b4000002eb00472bde00f507b200c9
:1004a000a6018800602ce10008003a000049eb003a
:1004b0000201e800020039003420ec0002f0a00044
:1004c0008301e900f9ff3e00040037006128e100e4
:1004d000010032000082eb00040007001101ba00a5
:1004e0000200e000e3ff3a000000060004d0a30091
:1004f000e20f49001c003900810278003549ba003a
:100500000201e800020039003420ec0002f0a000f3
:100510008301e9000f0032002549ba000201e8001a
:10052000020039003420ec0002f0a0008301e90051
:10053000080032000400e0000600320015c9ba00cd
:100540000201e800020039003420ec0002f0a000b3
:100550008301e9008180e80054a0b4000300e000ba
:10056000e2ff3a00000006009102ba000559780047
:100570008301e900f7ff3200c82ade000559780040
:100580008301e900f3ff32000400e000f1ff3200d4
:1005900011d9ba00eeff37000040da000000fe007b
:020000040000fa
:1005a000000800003a050000820000000000200062
:1005b000007e00000a00020084010000028e01009b
:1005c0000002980001000400a201000004ac010038
:1005d0000005b60001000400c001000001ca0100ce
:1005e0000002d40001000200de01000002e8010068
:1005f0000004f20001000100fc01000004060200fa
:1006000000011000020003001a020000042402008e
:1006100000032e0002000400380200000442020021
:1006200000044c00020004005602000004600200b6
:1006300000046a000200040074020000047e02004c
:10064000000188000200010092020000039c0200e9
:100650000004a60002000300b002000004ba020079
:100660000007c40002000500ce02000004d802000a
:100670000004e20002000400ec02000004f60200a4
:1006800000040000030005000a0300000414030036
:1006900000031e00030004002803000004320300ce
:1006a00000043c0003000500460300000550030061
:1006b00000055a000300040064030000056e0300f7
:1006c000000478000300040082030000048c03008f
:1006d0000004960003000500a003000007aa030021
:1006e0000004b40003000500be03000005c80300b9
:1006f0000002d20003000300dc03000002e6030056
:100700000003f00003000400fa03000001040400e9
:1007100000040e0004000400180400000422040079
:1007200000042c0004000400360400000340040010
:1007300000044a000400040054040000025e0400a7
:10074000000368000400040072040000027c04003e
:10075000000586000400040090040000039a0400d1
:100760000004a40004000400ae04000003b8040068
:100770000004c20004000300cc04000004d60400fe
:100780000004e00004000600ea04000003f4040092
:100790000004fe0004000400080500000312050028
:1007a00000021c00050003002605000004300500bf
:1007b0000000000000000000000000000000000039
:1007c0000000030003030300030000000000030017
:1007d000030000000000000000000000000e0f00f9
:1007e0000e0f0e000000000000000e0007070e00b4
:1007f0000f02000000000000000c1c0006060000b4
:100800000000000000060f00070f0f0008000000a6
:1008100000010100000000000000000000000000d6
:1008200002030300030300000000000000030200b5
:1008300002020300000000000003020000000000ac
:100840000000000000000000000006000f0600008d
:100850000000000000000000000001000100000096
:100860000000000000000f00000000000000000079
:10087000000000000001000000000000000406006d
:100880000202010000000000000006000f0f0f0030
:100890000f0000000000000006070600060600002a
:1008a0000000000000070c0007030f00000000001c
:1008b000000007000c0e0c000f00000000000000fc
:1008c00004060f000c0c000000000000000f0300e5
:1008d0000f0c0f000000000000000e00030f0b00c3
:1008e0000f000000000000000f0c060006060000cc
:1008f0000000000000060f000f0f0f0000000000b6
:10090000000006000f0e0c000e00000000000000aa
:1009100000000100000100000000000000000000d5
:1009200001000100010000000000000000030400bd
:10093000070000000000000000000f000f00000092
:10094000000000000000000006030400000000009a
:10095000000007000c0e0600060000003c7e7e0032
:100960003f1f3f007e7c00000000000000040e00de
:100970000a1f1b000000000000000f000b0f0b00ff
:100980000f000000000000000e030300030f000032
:1009900000000000000f0b000b0b0f000000000018
:1009a00000000e00030f03000f0000000000000015
:1009b0000e0307000303000000000000000e1b00f0
:1009c0001f1b1e000000000000000b000b0f0b009f
:1009d0000b000000000000000702020002070000f8
:1009e00000000000000c0c000c0f0f0000000000c5
:1009f00000000b000f070f000f00000000000000b8
:100a000003030300030f00000000000000131f0099
:100a1000171313000000000000001b001f1f1f0021
:100a20001b000000000000000e1b1b001b1f00002d
:100a300000000000000f0b000f0303000000000087
:100a400000000e001b1b1f001f180000000000000c
:100a50000f0b0f000b0b000000000000000e030046
:100a6000070c0f000000000000000f000606060043
:100a700006000000000000000b0b0b000b0f000035
:100a800000000000001b1b000a0e0e00000000000a
:100a9000000043005f7a7e003e000000000000007e
:100aa0000b0f0e000e0b000000000000001b1b00cf
:100ab0000a0e04000000000000001f001f0c0600ca
:100ac0001f000000000000000303030003030000f8
:100ad000000000000001030002020400000000000a
:100ae00000000300020202000300000000000600f4
:100af00005000000000000000000000000000000f1
:100b0000000000000f0000000000010000000000d5
:100b10000000000000000000000007000e0f0000b1
:100b20000000000000000300070f0f00000000009d
:100b300000000000000e03000f0000000000000095
:100b4000000c0e000f0f000000000000000000006d
:100b5000060f0f0000000000000000000707030060
:100b6000030000000000000000000e000f0f0e0048
:100b70000000000000000300070f0f00000000004d
:100b8000000000000203020002000000000000005c
:100b90000004040004070700000000000000070034
:100ba00007070f000000000000000000030303001f
:100bb000030000000000000000000e001f1f0000e6
:100bc0000000000000000000070f0f000000000000
:100bd0000000000000060700070000000000000001
:100be000000007000f0f03000000000000000000dd
:100bf0000e0f0f000c0000000000000000070300b3
:100c0000030000000000000000000e00070f0000bd
:100c100000000000000002000702060000000000c3
:100c200000000000000f0f000f0000000000000097
:100c300000000f000f060000000000000000000090
:100c40003f3f1e00000000000000000000070700fa
:100c5000070000000000000000000f000f0f0e0052
:100c600000000000000000000f0e0f000000000058
:100c70000000060002030200060000000000000061
:100c80000303030003030000000000000003020050
:100c9000060203000000000000000000000a0f0030
:100ca0000000000000100000306000008000000024
:100cb0003a0d00000800000080000000420d000016
:100cc0000800000082000000e00100000080020037
:080cd00000000000000000001c
:020000040000fa
:100cd8000000fa00243a80000480a1000490a100da
:100ce80004a0a100243a88004487a800353a80006f
:100cf800f41f2000848262000460210004827200d4
:100d0800343a8800243980000400a0000410a100af
:100d18000420a100243988000082eb00f4398800ff
:100d2800e538800004802f008482620004282000b7
:100d380004827200e4388800f538800004802f00af
:100d480084826200041e200004827200f438880045
:100d5800a538800004802f008482620004282000c7
:100d680004827200a4388800b538800004802f00ff
:100d780084826200041e200004827200b438880055
:100d88000539800004802f008482620074322000bc
:100d980004827200043988001539800004802f000d
:100da80084826200242120000482720014398800a1
:100db80026e7a8002647a9002667a9002627a80035
:100dc8002607a80026a7a9002687a90024c3b300e0
:100dd8000440780029e7b70074cab30004407800db
:100de80028e7b700c4c0b300044078002ce7b70078
:100df80044c1b300044078002ae7b70024c0b30018
:100e0800044078002de7b70004c6b300044078001a
:100e18002be7b70024c3b300044078002fe7b700de
:100e280074cab300044078002ee7b700060021001a
:100e3800070020000602be0004027800643888001b
:100e48000002eb0074388800243980000450a100a7
:100e58000460a1000470a1002439880024388000af
:100e68000450a1000460a1000470a1002438880087
:100e78002727a8002707a80005e7a8002707a80034
:100e88000080fa00000006000000fa00243a800002
:100e98000480a1000490a10004a0a100243a8800c5
:100ea800243a80000460a1000470a100243a88005c
:100eb8000002eb00142788000002eb0024278800ba
:100ec8000002eb00342788000002eb00542788005a
:100ed8000002eb00642788001400200005002000b1
:100ee800d4698800e56988001e003700d46980004d
:100ef800e5698000848fd2008582d20004027800e0
:100f080004f0a10000002100010020000043eb00d4
:100f18000001d0008403d000070241004220a8004d
:100f2800858248004200a9004220ae004200a80085
:100f38000482d300a701800005017800040278002c
:100f4800a2018800064a7800a7018800d4698000b9
:100f5800e569800061024200e0824a00d4698800a5
:100f6800e5698800d6698000e7698000f4fc2600fe
:100f780015002000840f5300858f5b00dbff3600cf
:100f880053ff07006022b800d4698800e56988002b
:100f980004802000043888000420250014388800c4
:100fa80000e82300010020003e0007000082eb005b
:100fb80004388800040025001438880000e823005d
:100fc80001002000370007000002eb000438880009
:100fd800041025001438880000e8230001002000d0
:100fe8003000070004802000043888000420250011
:100ff8001438880000e823000100200029000700b9
:10100800f4698000056a800084027800f4ff2700f4
:1010180004826200043888000430250014388800ef
:1010280000e82300010020001e0007000002eb007a
:1010380004388800048025001438880000e823005c
:1010480001002000170007000082eb000438880028
:10105800f49f25001438880000e8230001002000d0
:1010680010000700f4698000056a80000402780017
:101078000438880014002000143888000010270065
:101088002100200007000700f4698000056a80003d
:1010980061024200e0824a00f4698800056a88001b
:0410a800bbff370053
:020000040000fa
:1010ac00f03fb1000180b10006003500ee030900ed
:1010bc0000000000403fb1000180b100fbff3d008b
:1010cc001000b000203fb000020035000080090085
:0810dc00000000000000060006
:020000040000fa
:020000040005f5
:0457f800ff99000015
:020000040000fa
:020000040005f5
:0457fc007f7f0000ab
:00000001FF
