:020000040000fa
:080000000002040000000000f2
:020000040000fa
:10000800cc020000cc020000cc020000cc020000b0
:10001800cc020000cc020000cc020000cc020000a0
:10002800cc020000cc020000cc020000cc02000090
:10003800cc020000cc020000cc020000cc02000080
:020000040000fa
:020000040000fa
:100400002f0521000eef21000e01880000000000e2
:1004100000012000200288000c000700002d2000b1
:10042000010020000f000700000020000000e00095
:100430000200320000000200000000005a09020021
:10044000000000000040da000000fe002000200054
:100450000000e0000200320010002000900188003f
:1004600000000600a1028800800078000000eb0078
:100470001a003700e280400054a0b4009101ba0095
:10048000e280400054a0b4009102ba00e280400033
:1004900054a0b4000002eb00472bde00f507b200c9
:1004a000a6018800602ce10008003a000049eb003a
:1004b0000201e800020039003420ec0002f0a00044
:1004c0008301e900f9ff3e00040037006128e100e4
:1004d000010032000082eb00040007001101ba00a5
:1004e0000200e000e3ff3a000000060004d0a30091
:1004f000e20f49001c003900810278003549ba003a
:100500000201e800020039003420ec0002f0a000f3
:100510008301e9000f0032002549ba000201e8001a
:10052000020039003420ec0002f0a0008301e90051
:10053000080032000400e0000600320015c9ba00cd
:100540000201e800020039003420ec0002f0a000b3
:100550008301e9008180e80054a0b4000300e000ba
:10056000e2ff3a00000006009102ba000559780047
:100570008301e900f7ff3200c82ade000559780040
:100580008301e900f3ff32000400e000f1ff3200d4
:1005900011d9ba00eeff37000040da000000fe007b
:020000040000fa
:1005a0000008000028080000820000000000200071
:1005b000007e00001100030084010000039501008b
:1005c0000004a60001000700b701000006c80100f2
:1005d0000008d90001000700ea01000002fb010049
:1005e00000040c00020004001d020000042e0200a2
:1005f00000063f00020002005002000006610200f7
:10060000000272000200040083020000069402004f
:100610000004a50002000600b602000006c70200a2
:100620000006d80002000600e902000006fa0200f7
:1006300000060b00030006001c030000062d03004b
:1006400000023e00030002004f03000005600300ab
:1006500000067100030005008203000006930300fa
:10066000000ca40003000800c603000007d7030025
:100670000006e80003000700f9030000070a040071
:1006800000061b00040008002c040000073d0400c5
:1006900000044e00040006005f0400000770040020
:1006a00000068100040009009204000008b4040060
:1006b0000008c50004000700d604000008e7040095
:1006c0000007f8000400060009050000061a0500ee
:1006d00000072b00050008003c0500000c4d05003c
:1006e00000076f0005000800800500000991050063
:1006f0000004b30005000400c405000004d5050093
:100700000005e60005000600f705000002080600e7
:1007100000061900060006002a060000063b060037
:1007200000064c00060006005d060000056e06008f
:1007300000067f00060006009006000004a10600e7
:100740000005b20006000600c306000003d4060040
:100750000008e50006000600f60600000507070091
:10076000000618000700060029070000053a0700e8
:1007700000064b00070004005c070000066d070040
:1007800000067e0007000a008f07000005b1070081
:100790000006c20007000600d307000004e40700bb
:1007a0000003f50007000400060800000717080012
:1007b0000000000000000000000000000000000039
:1007c0000000000000000000000000000000000029
:1007d00006060600060600000606000000000000ef
:1007e000000000000a0a00000000000000000000f5
:1007f000000000000000000000000000003c3c0081
:100800007e3c3c007e3c3c000000000000000000fc
:10081000000008003c0e0e000e3c3800381e080098
:100820000000000000000000000000001050b000b8
:10083000581c18001000000000000000000000001c
:10084000001c360036164e0076363c004000000094
:100850000000000000020200000000000000000094
:1008600000000000000000000000000000000c007c
:1008700006060600060606000c0000000000000048
:100880000000000000060c000c0c0c000c0c060014
:100890000000000000000000040a04000000000046
:1008a0000000000000000000000000000000000048
:1008b00000000000000008003e08080000000000e2
:1008c0000000000000000000000000000000000028
:1008d0000000020002000000000000000000000014
:1008e00000000000003e00000000000000000000ca
:1008f00000000000000000000000000000000000f8
:1009000002000000000000000000000000080800d5
:1009100008080400040202000000000000000000bb
:10092000000000001c36360036363600361c00004b
:10093000000000000000000000000c000a08080091
:100940000808080008000000000000000000000087
:10095000001e3000301c060006063e0000000000ad
:1009600000000000000000001e3030001830300091
:10097000301e000000000000000000000000180011
:10098000080c36003e30300030000000000000004f
:1009900000000000003e0600061e300030301e0041
:1009a0000000000000000000000000003c060600ff
:1009b0001e262600261c000000000000000000008b
:1009c00000003e0030181800080808000800000069
:1009d0000000000000000000001c3600361c36003d
:1009e00036361c000000000000000000000000007f
:1009f0001c3636003c303000301c00000000000087
:100a000000000000000000000000000002000000e4
:100a100002000000000000000000000000000000d4
:100a200000000200000002000200000000000000c0
:100a30000000000000000000000e1000080600008a
:100a400000000000000000000000000000000000a6
:100a50003e3e00000000000000000000000000001a
:100a6000000000000018060004180000000000004c
:100a700000000000000000001e30300038180000a8
:100a8000080800000000000000f00700f807fc0064
:100a90000f7c0700fe03fe0001fe0000fe01fe00c9
:100aa00003fc0700f80ff80007f007000000000043
:100ab00000000000000000000000000018386c007a
:100ac0006ceefe00c6c60000000000000000000042
:100ad00000003e00666666007e6666003e0000001e
:100ae0000000000000000000003c060006060600b2
:100af000063e3c0000000000000000000000000076
:100b00003e66660066666600663e00000000000005
:100b10000000000000007c00060606003e067e0085
:100b20007c0000000000000000000000003c060007
:100b300006061e0006060600000000000000000079
:100b40000000000078c4060006fec600fc78000025
:100b500000000000000000000000660066666600fd
:100b60007e666600660000000000000000000000d5
:100b7000000e0c000c0c0c000c0c0e000000000011
:100b80000000000000000000303030003036360039
:100b9000323c000000000000000000000000660081
:100ba000763e1e001e3e760066000000000000003b
:100bb00000000000000606000606060006063c00cf
:100bc0000000000000000000000000000000000025
:100bd000000000008601ce0001ae010096018600f3
:100be000018601008601860001000000000000006f
:100bf000000000000000000000cece00ceced600e7
:100c0000e6e6c60000000000000000000000000052
:100c10007cc6c600c6c6c600c67c00000000000038
:100c20000000000000003e00666666003e0606000a
:100c3000060000000000000000000000007cc6006c
:100c4000c6c6c600d6f67c00e0000000000000002a
:100c5000000000003e666600667e66006666000074
:100c6000000000000000000000003c000606060036
:100c70003c3030001e0000000000000000000000ba
:100c8000003e0800080808000808080000000000ee
:100c900000000000000000006666660066666600f0
:100ca000663c000000000000000000000000c600dc
:100cb000c6c66c006c383800180000000000000048
:100cc00000000000000000000000000000060c0012
:100cd000160db6000dec0400ec04b80007b80700d0
:100ce00018030000000000000000000000000000e9
:100cf00000006600663c3c003c3c6600660000006c
:100d0000000000000000000000c6c600c66c7c00a9
:100d1000181818000000000000000000000000008b
:100d20000000000000000000fe01fe0001c0000005
:100d30006000380000080000fc01fe000100000017
:100d4000000000000000000000000000000e06008f
:100d50000606060006060e00000000000000000067
:100d60000000000002020400040808000808000057
:100d7000000000000000000000000e000c0c0c0041
:100d80000c0c0c000e0000000000000000080c001d
:100d90001200000000000000000000000000000041
:100da0000000000000000000000000000000000043
:100db00000003e00000000000000000000020000f3
:100dc0000000000000000000000000000000000023
:100dd000000000000000000000003e003c322c003b
:100de00000000000000000000000000000060600f7
:100df000063e3600361e0000000000000000000025
:100e000000000000000000003e0606003c0000005c
:100e100000000000000000000000300030303e0004
:100e200036363c000000000000000000000000001a
:100e300000000000003e1e00063c00000000000014
:100e400000000000000000000c1606000e06060060
:100e5000060000000000000000000000000000008c
:100e600000003e0036363c00301c00000000000050
:100e70000000000000060600063e36003636000080
:100e80000000000000000000000000000c0c00004a
:100e90000e0c0c000c000000000000000000000020
:100ea000000018001800180018181e001e1c000072
:100eb0000000000000000000000616000e0e0e00ec
:100ec00016260000000000000000000000000000e6
:100ed00006060600060606000600000000000000e8
:100ee00000000000000000000000fe00dedede006a
:100ef00000000000000000000000000000000000f2
:100f0000003e360036360000000000000000000001
:100f100000000000000000001e1616000c0000007b
:100f200000000000000000000000000000003e0083
:100f300036361e000606000000000000000000001b
:100f400000000000003e3600363c3000300000005b
:100f50000000000000000000000000001e06060067
:100f6000060000000000000000000000000000007b
:100f700000003e001c201e000000000000000000d9
:100f800000000000000c0c000c0e0c000c0800000f
:100f90000000000000000000000000000000000051
:100fa000363636001c000000000000000000000083
:100fb0000000000000003600361c080000000000a1
:100fc0000000000000000000000000000000000021
:100fd000000000000000000000003600033603009f
:100fe000fc01c8000000000000000000000000003c
:100ff000000000000000000000001e000c1e1e008b
:1010000000000000000000000000000000000000e0
:1010100000363600363c30001c00000000000000a6
:1010200000000000000000003e0806003e00000036
:10103000000000000000000000080c000c0c0e0076
:101040000c0c080000000000000000000000000080
:101050000606060006060600060600000000000060
:1010600000000000000006000c0c0c000c0c0c0032
:10107000060000000000000000000000000000006a
:1010800000006c001200000000000000001f0000c3
:1010900000fa00008000000028100000200000007e
:1010a0008200000048415000505920003130540067
:1010b0004820420049525400484441005920480009
:1010c00041434b0041444100592120000a000000e7
:1010d000481000000a00000080000000000000002e
:020000040000fa
:1010e0000000fa00243a80000480a1000490a100ce
:1010f00004a0a100243a88004487a800353a800063
:10110000f41f2000848262000460210004827200c7
:10111000343a8800243980000400a0000410a100a3
:101120000420a100243988000082eb00f4398800f3
:10113000e538800004802f008482620004282000ab
:1011400004827200e4388800f538800004802f00a3
:1011500084826200041e200004827200f438880039
:10116000a538800004802f008482620004282000bb
:1011700004827200a4388800b538800004802f00f3
:1011800084826200041e200004827200b438880049
:101190000539800004802f008482620074322000b0
:1011a00004827200043988001539800004802f0001
:1011b0008482620024212000048272001439880095
:1011c00026e7a8002647a9002667a9002627a80029
:1011d0002607a80026a7a9002687a90024c3b300d4
:1011e0000440780029e7b70074cab30004407800cf
:1011f00028e7b700c4c0b300044078002ce7b7006c
:1012000044c1b300044078002ae7b70024c0b3000b
:10121000044078002de7b70004c6b300044078000e
:101220002be7b70024c3b300044078002fe7b700d2
:1012300074cab300044078002ee7b70000f0210024
:10124000010020000002be0004027800c4388800bb
:101250000002eb00d4388800066723000700200056
:101260000602be0004027800643888000002eb0029
:1012700074388800243980000450a1000460a10063
:101280000470a10024398800243880000450a10093
:101290000460a1000470a100243888002727a8005a
:1012a0002707a80005e7a8002707a8000080fa0084
:1012b000000006000400fa00243a80000480a10027
:1012c0000490a10004a0a100243a8800243a8000e0
:1012d0000460a1000470a100243a88000002eb0021
:1012e000142788000002eb00242788000002eb008e
:1012f000342788000002eb00542788000002eb002e
:10130000642788001400200005002000048fbe0020
:101310001b0037001e02be00848fd2008582d200df
:101320000402780004f0a10000f021000100200078
:101330000043eb000001d0008403d000070241000d
:101340004220a800858248004200a9004220ae0049
:101350004200a8000482d300a701800005017800a4
:1013600004027800a2018800064a7800a7018800dc
:1013700014002000050020001e0f42005e974a0066
:10138000f49f2f00050020001e03be00840f5300b1
:10139000858f5b00dfff360051ff0700010037003b
:1013a000000000000480200004388800042025008c
:1013b0001438880000e82300010020005b000700cb
:1013c0000002eb00043888000480250014388800ef
:1013d00000e8230001002000540007000082eb0019
:1013e00004388800f49f25001438880000e82300a2
:1013f000010020004d0007000082eb000438880047
:10140000040025001438880000e8230001002000b3
:10141000460007000002eb00043888000410250095
:101420001438880000e82300010020003f00070076
:1014300045828000f4ff2000848262005482800094
:101440004c22dd00048242006482880054828000c5
:10145000c422de0004a025000482420074828800b9
:1014600000e82300010020003000070064828000b3
:1014700004388800748280001438880000e8230053
:101480000100200029000700848280000500200060
:101490008602210006024200144278008402fb000a
:1014a000f40f200004826200043888000430250014
:1014b0001438880000102700210020001b000700be
:1014c000848280000402e8008482880054828000c4
:1014d0006802420054828800848280000500200057
:1014e000860221000602420014427800ea4f5200b0
:1014f00007003a000002eb00848288000002eb0043
:101500005482880044828000700242004482880035
:101510004582800064182000848f5200a0ff3600ae
:0c1520000002eb00448288009eff3700b0
:020000040000fa
:10152c00f03fb1000180b10006003500ee03090068
:10153c0000000000403fb1000180b100fbff3d0006
:10154c001000b000203fb000020035000080090000
:08155c00000000000000060081
:020000040000fa
:020000040005f5
:0457f800ff99000015
:020000040000fa
:020000040005f5
:0457fc007f7f0000ab
:00000001FF
