:020000040000fa
:080000000002040000000000f2
:020000040000fa
:10000800cc020000cc020000cc020000cc020000b0
:10001800cc020000cc020000cc020000cc020000a0
:10002800cc020000cc020000cc020000cc02000090
:10003800cc020000cc020000cc020000cc02000080
:020000040000fa
:020000040000fa
:100400002f9521000eef21000e0188000000000052
:1004100000012000200288000c000700002d2000b1
:10042000010020000f000700000020000000e00095
:100430000200320000000200000000005a0f02001b
:10044000000000000040da000000fe002000200054
:100450000000e0000200320010002000900188003f
:1004600000000600a1028800800078000000eb0078
:100470001a003700e280400054a0b4009101ba0095
:10048000e280400054a0b4009102ba00e280400033
:1004900054a0b4000002eb00472bde00f507b200c9
:1004a000a6018800602ce10008003a000049eb003a
:1004b0000201e800020039003420ec0002f0a00044
:1004c0008301e900f9ff3e00040037006128e100e4
:1004d000010032000082eb00040007001101ba00a5
:1004e0000200e000e3ff3a000000060004d0a30091
:1004f000e20f49001c003900810278003549ba003a
:100500000201e800020039003420ec0002f0a000f3
:100510008301e9000f0032002549ba000201e8001a
:10052000020039003420ec0002f0a0008301e90051
:10053000080032000400e0000600320015c9ba00cd
:100540000201e800020039003420ec0002f0a000b3
:100550008301e9008180e80054a0b4000300e000ba
:10056000e2ff3a00000006009102ba000559780047
:100570008301e900f7ff3200c82ade000559780040
:100580008301e900f3ff32000400e000f1ff3200d4
:1005900011d9ba00eeff37000040da000000fe007b
:020000040000fa
:1005a000000800002611000082000000000020006a
:1005b000007e00001700040084010000049b01007d
:1005c0000008b20001000c00c90100000cf7010096
:1005d000000c250002000c00530200000481020000
:1005e000000a980002000a00c60200000af4020095
:1005f000000c220003000400500300000c670300fd
:100600000004950003000c00ac0300000cda0300aa
:10061000000c080004000c00360400000c64040008
:10062000000c920004000c00c00400000cee04005a
:10063000000c1c0005000c004a0500000c780500a9
:100640000004a60005000400bd0500000ad4050052
:10065000000c020006000a00300600000c5e0600d6
:10066000000e8c0006000c00ba0600000ce8060024
:10067000000c160007000c00440700000c72070075
:10068000000ca00007000c00ce0700000cfc0700c7
:1006900000082a0008000c00410800000c6f080048
:1006a000000c9d0008000c00cb0800000cf90800ad
:1006b000000c270009000c00550900000c830900fc
:1006c000000cb10009000c00df0900000c0d0a004d
:1006d000000c3b000a000c00690a00000c970a009d
:1006e000000cc5000a000c00f30a00000c210b00ee
:1006f00000084f000b000c00660b000008940b0074
:10070000000cab000b000c00d90b000006070c001e
:10071000000c1e000c000c004c0c00000c7a0c00ad
:10072000000ca8000c000c00d60c00000a040d0000
:10073000000c32000d000c00600d0000048e0d0056
:10074000000ca5000d000a00d30d000006010e00ec
:10075000000c18000e000c00460e00000c740e0079
:10076000000ca2000e000c00d00e00000cfe0e00cb
:10077000000c2c000f0008005a0f00000c710f0035
:10078000000c9f000f000c00cd0f00000cfb0f00b1
:10079000000c290010000c00571000000a85100002
:1007a0000004b30010000a00ca1000000ef8100088
:1007b0000000000000000000000000000000000039
:1007c0000000000000000000000000000000000029
:1007d0000000000000030300030303000303030001
:1007e00003030000000303000000000000000000fd
:1007f000000000003333330033000000000000002d
:1008000000000000000000000000000000000000e8
:100810000000000000000000cc00cc0000cc000074
:10082000cc00ff0003ff0300cc00cc0000ff03005e
:10083000ff03cc0000cc0000cc00cc000000000086
:1008400000000000000000000000000000000000a8
:1008500000000000003000003000fc0003fc03003a
:100860000300030000fc0000fc0000000300030084
:10087000ff00ff000030000030000000000000001a
:100880000000000000000000000000000000000068
:100890000000030003030300c300c30000c0000006
:1008a000c0003000003000000c000c00000c030001
:1008b0000c0303000303030000000000000000001d
:1008c0000000000000000000000000000000000028
:1008d0003000300000cc0000cc00300000300000c0
:1008e0003c033c0003f30000f300c30000c300001e
:1008f0003c033c000300000000000000000000007a
:1009000000000000000000000303030003000000db
:1009100000000000000000000000000000000000d7
:10092000000000000000000000000000f000f000e7
:10093000000c00000c000300000300000300030093
:100940000003000003000c00000c0000f000f000a9
:100950000000000000000000000000000000000097
:100960000000000000000000000f00000f00300039
:1009700000300000c000c00000c00000c000c00087
:1009800000c0000030003000000f00000f00000029
:100990000000000000000000000000000000000057
:1009a000000000000000c30000c300003c003c0049
:1009b00000c30000c30000000000000000000000b1
:1009c0000000000000000000000000000000000027
:1009d0000000000000000000000000000000000017
:1009e00000000000000000000000000000003000d7
:1009f000003000003000300000ff0300ff03300033
:100a00000030000030003000000000000000000056
:100a100000000000000000000000000000000000d6
:100a200000000000000000000003030003030300b7
:100a300003000000000000000000000000000000b3
:100a400000000000000000000000000000000000a6
:100a50000000000000ff0300ff0300000000000092
:100a60000000000000000000000000000000000086
:100a70000000000000000000000000000000000076
:100a8000000000000003030003030000000000005a
:100a90000000000000000000000000000003000053
:100aa00003c00000c000c00000c0000030003000e3
:100ab000000c00000c000c00000c00000300030000
:100ac0000000000000000000000000000000000026
:100ad000000000000000000000fc0000fc0003001b
:100ae00003030300c303c3000333030033030f00f6
:100af000030f03000303030003fc0000fc000000dd
:100b000000000000000000000000000000000000e5
:100b10000000000000003000003000003c003c00fd
:100b200000300000300030000030000030003000a5
:100b3000003000003000ff0003ff03000000000051
:100b400000000000000000000000000000000000a5
:100b500000000000fc00fc00000303000303000091
:100b600003000300f000f000000c00000c00030084
:100b700000030000ff03ff0003000000000000006e
:100b80000000000000000000000000000000000065
:100b900000fc0000fc00030003030300000300004e
:100ba00003f00000f0000000030003000303030053
:100bb00003fc0000fc00000000000000000000003a
:100bc0000000000000000000000000000000c00065
:100bd00003c0030030033000030c03000c030300c8
:100be00003030300ff03ff000300030000030000f2
:100bf00003000300000000000000000000000000ef
:100c0000000000000000000000000000ff03ff00e3
:100c1000030300000300ff0000ff000000030000ca
:100c2000030003000003030003030300fc00fc00b7
:100c300000000000000000000000000000000000b4
:100c4000000000000000000000f00000f0000c00b8
:100c5000000c00000300030000ff0000ff00030081
:100c6000030303000303030003fc0000fc00000077
:100c70000000000000000000000000000000000074
:100c8000000000000000ff0003ff03000303030057
:100c9000030003000003c00000c00000300030006b
:100ca0000030000030003000003000000000000084
:100cb0000000000000000000000000000000000034
:100cc00000000000fc00fc0000030300030303001d
:100cd00003030300fc00fc00000303000303030004
:100ce00003030300fc00fc00000000000000000003
:100cf00000000000000000000000000000000000f4
:100d000000fc0000fc0003000303030003030300d6
:100d100003fc0300fc03000003000300c000c0004c
:100d2000003c00003c00000000000000000000004b
:100d300000000000000000000000000003030300aa
:100d40000300000000000300030303000000000094
:100d50000000000000000000000003000303030087
:100d60000000000000030300030303000300000071
:100d7000000000000000000000000000c000c000f3
:100d80000030000030000c00000c000003000300e5
:100d9000000c00000c00300000300000c000c0005b
:100da0000000000000000000000000000000000043
:100db0000000000000000000000000000000000033
:100dc00000000000ff03ff0003000000000000001f
:100dd00000000000ff03ff0003000000000000000f
:100de0000000000000000000000000000000000003
:100df0000000000000000300000300000c000c00d5
:100e0000003000003000c00000c0000030003000a2
:100e1000000c00000c0003000003000000000000b4
:100e200000000000000000000000000000000000c2
:100e300000000000fc00fc000003030003030000ae
:100e400003000300c000c0000030000030000000bc
:100e50000000000030003000000000000000000032
:100e60000000000000000000000000000000000082
:100e700000fc0300fc0303000c030c00f30cf30064
:100e80000cf30c00f30cf3000ff30f00030003004e
:100e900000fc0f00fc0f000000000000000000003c
:100ea0000000000000000000000000000000fc0046
:100eb00000fc00000303030003ff0300ff03030023
:100ec00003030300030303000303030003030300fe
:100ed0000303030000000000000000000000000009
:100ee000000000000000000000000000ff00ff0004
:100ef000000303000303ff0000ff000003030300df
:100f0000030303000303030003030300ff00ff00c8
:100f100000000000000000000000000000000000d1
:100f2000000000000000000000fc0000fc000300c6
:100f30000303030003000300000300000300030099
:100f4000000300000303030003fc0000fc0000009a
:100f50000000000000000000000000000000000091
:100f6000000000000000ff0000ff0000030303007a
:100f7000030303000303030003030300030303004d
:100f8000030303000303ff0000ff00000000000054
:100f90000000000000000000000000000000000051
:100fa00000000000ff03ff000303000003003f00f8
:100fb000003f0000030003000003000003000300e3
:100fc00000030000ff03ff0003000000000000001a
:100fd0000000000000000000000000000000000011
:100fe00000ff0300ff030300000300003f003f0079
:100ff00000030000030003000003000003000300df
:1010000000030000030000000000000000000000da
:101010000000000000000000000000000000fc00d4
:1010200003fc03000300030000f30300f3030300c9
:101030000303030003030300030303000303fc0093
:1010400000fc0000000000000000000000000000a4
:101050000000000000000000000000000303030087
:10106000030303000303ff0003ff03000303030064
:10107000030303000303030003030300030303004c
:10108000030000000000000000000000000000005d
:10109000000000003f3f0c000c0c0c000c0c0c007e
:1010a0000c0c0c003f3f000000000000000000009e
:1010b0000000000000000000000300000300030027
:1010c000000300000300030000030000030003000e
:1010d0000003030003030300fc00fc000000000009
:1010e0000000000000000000000000000000000000
:1010f00000000000000303000303c30000c300005e
:101100003f003f0000c30000c300030003030300cf
:1011100003030300030303000303000000000000b7
:1011200000000000000000000000000000000000bf
:1011300000000300000300000300030000030000a0
:10114000030003000003000003000300000300008d
:101150000300ff0003ff0300000000000000000088
:10116000000000000000000000000000000000007f
:101170000303030003cf0300cf0333000333030053
:10118000030303000303030003030300030303003b
:101190000303030003000000000000000000000043
:1011a0000000000000000000000000000003030039
:1011b00003030f00030f03003303330003c30300d3
:1011c000c30303000303030003030300030303003b
:1011d0000303000000000000000000000000000009
:1011e00000000000000000000000fc0000fc000007
:1011f00003030300030303000303030003030300cb
:1012000003030300030303000303fc0000fc0000ce
:1012100000000000000000000000000000000000ce
:101220000000000000000000ff00ff0000030300ba
:101230000303ff0000ff00000300030000030000a1
:10124000030003000003000003000300000000008f
:10125000000000000000000000000000000000008e
:101260000000000000fc0000fc000300030303007a
:10127000030303000303030003030300030303004a
:10128000c300c300003c03003c030000000000005a
:10129000000000000000000000000000000000004e
:1012a0000000ff0000ff00000303030003ff000035
:1012b000ff00030003030300030303000303030011
:1012c000030303000303030000000000000000000c
:1012d000000000000000000000000000000000000e
:1012e000fc03fc00030300000300fc0000fc000002
:1012f00000030000030003000003030003030300d6
:10130000fc00fc00000000000000000000000000e5
:1013100000000000000000000000000000ff0300cb
:10132000ff033000003000003000300000300000cb
:10133000300030000030000030003000003000008d
:10134000300000000000000000000000000000006d
:101350000000000000000000000003000303030081
:101360000303030003030300030303000303030059
:1013700003030300030303000303fc0000fc00005d
:10138000000000000000000000000000000000005d
:10139000000000000000000003030300030303003b
:1013a00003030300030303000303030003cc000053
:1013b000cc00cc0000cc0000300030000000000069
:1013c000000000000000000000000000000000001d
:1013d00000000000000303000303030003030300f5
:1013e0000303030003030300030333000333030079
:1013f000cf03cf000303030003030000000000003d
:1014000000000000000000000000000000000000dc
:101410000000030003030300cc00cc0000300000f8
:101420003000cc0000cc00000303030003030300e2
:10143000030303000303030000000000000000009a
:10144000000000000000000000000000000000009c
:101450000303030003cc0000cc0030000030000088
:10146000300030000030000030003000003000005c
:10147000300030000000000000000000000000000c
:1014800000000000000000000000000000ff03005a
:10149000ff03000003000300c000c0000030000094
:1014a00030000c00000c00000300030000ff0300ec
:1014b000ff0300000000000000000000000000002a
:1014c00000000000003f3f0003030300030303008c
:1014d00003030300033f3f00000000000000000082
:1014e00000000000000000000003000003000c00ea
:1014f000000c00000c000c00003000003000c000a8
:1015000000c00000c000c000000003000003000095
:1015100000000000000000000000000000000000cb
:10152000003f3f003030300030303000303030008d
:10153000303f3f00000000000000000000000000fd
:1015400000000000003000003000cc0000cc0000a3
:10155000030303000300000000000000000000007f
:10156000000000000000000000000000000000007b
:10157000000000000000000000000000000000006b
:10158000000000000000000000000000000000005b
:10159000000000000000000000000000000000004b
:1015a0000000000000000000ff03ff000300000037
:1015b000000000000000000003030c000c0000000d
:1015c000000000000000000000000000000000001b
:1015d000000000000000000000000000000000000b
:1015e000000000000000000000fc0000fc00000003
:1015f00003000300fc03fc00030303000303fc00df
:1016000003fc0300000000000000000000000000d8
:1016100000000000000000000000000003000300c4
:10162000000300000300f30000f300000f030f00ad
:10163000030303000303030003030300ff00ff0091
:10164000000000000000000000000000000000009a
:10165000000000000000000000000000000000008a
:1016600000000000fc00fc00000303000303030073
:10167000000300000303030003fc0000fc00000063
:10168000000000000000000000000000000000005a
:101690000000000000000000030003000003000041
:1016a000033c03003c03c30003c303000303030024
:1016b000030303000303fc0003fc0300000000001d
:1016c000000000000000000000000000000000001a
:1016d0000000000000000000000000000000fc000e
:1016e00000fc00000303030003ff0300ff030300eb
:1016f00000030000fc03fc000300000000000000e9
:1017000000000000000000000000000000000000d9
:1017100000f00000f0000c00000c0000ff00ff00d3
:10172000000c00000c000c00000c00000c000c0071
:10173000000c00000c000000000000000000000091
:101740000000000000000000000000000000000099
:10175000000000000000000000fc0300fc03030088
:10176000030303000303030003fc0300fc03000066
:1017700003000300ff00ff00000000000000000065
:101780000000000000000000000000000300030053
:10179000000300000300f30000f300000f030f003c
:1017a0000303030003030300030303000303030015
:1017b0000300000000000000000000000000000026
:1017c0000000000003030000000303000303030004
:1017d00003030300030300000000000000000000fa
:1017e00000000000000000000003000003000000f3
:1017f00000000000030003000003000003000300da
:1018000000030300030303000303030003fc0000c1
:10181000fc000000000000000000000000000000cc
:1018200000000000000300000300030000030000ac
:10183000c300c3000033000033000f00000f00009e
:101840003300330000c30000c300000000000000ac
:101850000000000000000000000000000003030082
:10186000030303000303030003030300030c0c0042
:101870000000000000000000000000000000000068
:10188000000000000000000000000000cf00cf00ba
:101890000033030033033300033303000303030067
:1018a0000303030003030000000000000000000029
:1018b0000000000000000000000000000000000028
:1018c000000000000000000000ff0000ff00030017
:1018d00003030300030303000303030003030300e4
:1018e00003030300000000000000000000000000ef
:1018f00000000000000000000000000000000000e8
:10190000000000000000fc0000fc000003030300d6
:10191000030303000303030003030300fc00fc00b4
:1019200000000000000000000000000000000000b7
:1019300000000000000000000000000000000000a7
:1019400000000000f300f300000f03000f0303008a
:1019500003030300ff00ff00000300000300030077
:101960000003000000000000000000000000000074
:101970000000000000000000000000000000000067
:10198000003c03003c03c30003c303000303030044
:1019900003fc0300fc03000003000300000300003d
:1019a0000300000000000000000000000000000034
:1019b0000000000000000000000000000000f30034
:1019c00000f300000f030f000303000003000300f7
:1019d00000030000030003000000000000000000fe
:1019e00000000000000000000000000000000000f7
:1019f000000000000000000000000000fc03fc00ec
:101a0000030300000300fc0000fc000000030000d2
:101a100003ff0000ff0000000000000000000000c5
:101a20000000000000000000000c0c003f3f0c0014
:101a30000c0c0c000c0c0c000c30300000000000f2
:101a40000000000000000000000000000000000096
:101a50000000000000000000030303000303030074
:101a600003030300030303000303030003fc030059
:101a7000fc03000000000000000000000000000067
:101a80000000000000000000000000000000000056
:101a9000000000000003030003030300030303002e
:101aa0000303030003cc0000cc0030000030000032
:101ab0000000000000000000000000000000000026
:101ac0000000000000000000000000000000000016
:101ad00000000300030303000303030003330300b8
:101ae0003303330003330300fc03fc000300000056
:101af00000000000000000000000000000000000e6
:101b000000000000000000000000000000000000d5
:101b10000303030003cc0000cc00300000300000c1
:101b2000cc00cc0000030300030300000000000011
:101b300000000000000000000000000000000000a5
:101b4000000000000000000000000000000303008f
:101b500003030300030303000303030003fc030068
:101b6000fc03000003000300ff00ff000000000072
:101b70000000000000000000000000000000000065
:101b800000000000000000000000ff0003ff030051
:101b9000c000c0000030000030000c00000c00004d
:101ba000ff03ff0003000000000000000000000031
:101bb00000000000000000000000000000f0000035
:101bc000f0000c00000c00000c000c0000030000f2
:101bd00003000c00000c00000c000c0000f00000e2
:101be000f000000000000000000000000000000005
:101bf00000000000000303000303030003030300cd
:101c000003030300030303000303000000000000bc
:101c10000000000000000000000f00000f00300076
:101c2000003000003000300000c00000c000300074
:101c30000030000030003000000f00000f000000f6
:101c40000000000000000000000000000000000094
:101c50000000000000003c000c3c0c00c303c3006b
:101c60000300000000000000000000000000000071
:101c70000000000000000000000000000000000064
:101c8000000000000000000000000000001f000035
:101c900000fa00008000000026190000200000006b
:101ca000820000004841500050592000313054005b
:101cb00048204200495254004844410059204800fd
:101cc00041434b0041444100592120000a000000db
:101cd000461900000c000000800000000000000019
:020000040000fa
:101ce0000000fa00243a80000480a1000490a100c2
:101cf00004a0a100243a88004487a800353a800057
:101d0000f41f2000848262000460210004827200bb
:101d1000343a8800243980000400a0000410a10097
:101d20000420a100243988000082eb00f4398800e7
:101d3000e538800004802f0084826200042820009f
:101d400004827200e4388800f538800004802f0097
:101d500084826200041e200004827200f43888002d
:101d6000a538800004802f008482620004282000af
:101d700004827200a4388800b538800004802f00e7
:101d800084826200041e200004827200b43888003d
:101d90000539800004802f008482620074322000a4
:101da00004827200043988001539800004802f00f5
:101db0008482620024212000048272001439880089
:101dc00026e7a8002647a9002667a9002627a8001d
:101dd0002607a80026a7a9002687a90024c3b300c8
:101de0000440780029e7b70074cab30004407800c3
:101df00028e7b700c4c0b300044078002ce7b70060
:101e000044c1b300044078002ae7b70024c0b300ff
:101e1000044078002de7b70004c6b3000440780002
:101e20002be7b70024c3b300044078002fe7b700c6
:101e300074cab300044078002ee7b70000f0210018
:101e4000010020000002be0004027800c4388800af
:101e50000002eb00d438880006672300070020004a
:101e60000602be0004027800643888000002eb001d
:101e700074388800243980000450a1000460a10057
:101e80000470a10024398800243880000450a10087
:101e90000460a1000470a100243888002727a8004e
:101ea0002707a80005e7a8002707a8000080fa0078
:101eb000000006000400fa00889fbe00243a80005b
:101ec0000480a1000490a10004a0a100243a88008d
:101ed000243a80000460a1000470a100243a880024
:101ee0000002eb00142788000002eb002427880082
:101ef0000002eb00342788000002eb005427880022
:101f00000002eb0064278800140020000500200078
:101f1000048fbe001b0037001e02be00848fd2005b
:101f20008582d2000402780004f0a10000f02100b4
:101f3000010020000043eb000001d0008403d0002a
:101f4000070241004220a800858248004200a90003
:101f50004220ae004200a8000482d300a701800006
:101f60000501780004027800a2018800064a780082
:101f7000a701880014002000050020001e0f420069
:101f80005e974a00f49f2f00050020001e03be004c
:101f9000840f5300858f5b00dfff360050ff070082
:101fa000700620007d0007000100370000000000df
:101fb000048020000438880004202500143888009c
:101fc0000002eb00043888000480250014388800e3
:101fd0000082eb0004388800f49f25001438880044
:101fe0000082eb00043888000400250014388800c3
:101ff0000002eb0004388800041025001438880023
:1020000045ca8000f4ff20008482620054ca800028
:102010004c22dd000482420064ca880054ca800059
:10202000c422de0004a025000482420074ca880095
:1020300064ca80000438880074ca8000143888009c
:1020400079000700004278000440780046f9b700a4
:1020500064942100144278008402fb00f40f2000f5
:102060000482620004388800043025001438880097
:1020700084ca80000402e80084ca880054ca800030
:102080007002420054ca880064942100144278000f
:10209000a4c0b2000482fb000402e9004f22de006b
:1020a0000442780057ca800015c0b300862520007e
:1020b000868f530001003e008042eb000542720013
:1020c000e04f5200070032000002eb0084ca880093
:1020d0000002eb0054ca880044ca80007402420027
:1020e00044ca880045ca800064182000848f5200ca
:1020f000aeff36000002eb0044ca88006022b80040
:10210000048fbe000400210005002000048fbe00e3
:102110001b0037001e02be00848fd2008582d200d1
:102120000402780004f0a10008f02100090020005a
:102130000043eb008800d0000401d0000282400080
:102140004220a80085824c004200a9004220ae0037
:102150004200a8000482d300a70180000500780097
:1021600004027800a0018800064a7800a7018800d0
:1021700014002000050020001e0f42005e974a0058
:10218000f4002400150020001e03be00840f53003d
:10219000858f5b00dfff360085ff37000200fa0005
:1021a000000f78002535800004fc2f0004826200b7
:1021b0006400b3002435880035368000f40f2c000d
:1021c0008482620004302000048272003436880069
:1021d0002062a9001e027800441188000400280033
:1021e0000411880004402800141188008560a900ab
:1021f0000080fa00000006000200fa00004f78009c
:1022000000000000151180000420200004826200fc
:10221000e00f5200fbff3a001e02fb002411880071
:102220000080fa00000006000200fa000000000032
:10223000250480000480200004826200e00f520028
:10224000fbff320034118000044f78008560a90044
:102250001e427800044078000080fa00000006006a
:020000040000fa
:020000040005f5
:0457f800ff99000015
:020000040000fa
:020000040005f5
:0457fc007f7f0000ab
:00000001FF
