:020000040000fa
:080000000002040000000000f2
:020000040000fa
:10000800cc020000cc020000cc020000cc020000b0
:10001800cc020000cc020000cc020000cc020000a0
:10002800cc020000cc020000cc020000cc02000090
:10003800cc020000cc020000cc020000cc02000080
:020000040000fa
:020000040000fa
:10040000cff920000eff20000e0188000000000040
:1004100000012000200288000c000700002d2000b1
:10042000010020000f000700000020000000e00095
:10043000020032000000020000000000ce080200ae
:10044000000000000040da000000fe002000200054
:100450000000e0000200320010002000900188003f
:1004600000000600a1028800800078000000eb0078
:100470001a003700e280400054a0b4009101ba0095
:10048000e280400054a0b4009102ba00e280400033
:1004900054a0b4000002eb00472bde00f507b200c9
:1004a000a6018800602ce10008003a000049eb003a
:1004b0000201e800020039003420ec0002f0a00044
:1004c0008301e900f9ff3e00040037006128e100e4
:1004d000010032000082eb00040007001101ba00a5
:1004e0000200e000e3ff3a000000060004d0a30091
:1004f000e20f49001c003900810278003549ba003a
:100500000201e800020039003420ec0002f0a000f3
:100510008301e9000f0032002549ba000201e8001a
:10052000020039003420ec0002f0a0008301e90051
:10053000080032000400e0000600320015c9ba00cd
:100540000201e800020039003420ec0002f0a000b3
:100550008301e9008180e80054a0b4000300e000ba
:10056000e2ff3a00000006009102ba000559780047
:100570008301e900f7ff3200c82ade000559780040
:100580008301e900f3ff32000400e000f1ff3200d4
:1005900011d9ba00eeff37000040da000000fe007b
:020000040000fa
:1005a000000800009c0700008200000000002000fe
:1005b00000800000100007008c010000079c010073
:1005c0000007ac0001000700bc01000007cc0100df
:1005d0000007dc0001000700ec01000007fc01003f
:1005e00000070c00020007001c020000072c02009c
:1005f00000073c00020007004c020000075c0200fc
:1006000000076c00020007007c020000078c02005b
:1006100000079c0002000700ac02000007bc0200bb
:100620000007cc0002000700dc02000007ec02001b
:100630000007fc00020007000c030000071c030079
:1006400000072c00030007003c030000074c0300d8
:1006500000075c00030007006c030000077c030038
:1006600000078c00030007009c03000007ac030098
:100670000007bc0003000700cc03000007dc0300f8
:100680000007ec0003000700fc030000070c040057
:1006900000071c00040007002c040000073c0400b5
:1006a00000074c00040007005c040000076c040015
:1006b00000077c00040007008c040000079c040075
:1006c0000007ac0004000700bc04000007cc0400d5
:1006d0000007dc0004000700ec04000007fc040035
:1006e00000070c00050007001c050000072c050092
:1006f00000073c00050007004c050000075c0500f2
:1007000000076c00050007007c050000078c050051
:1007100000079c0005000700ac05000007bc0500b1
:100720000007cc0005000700dc05000007ec050011
:100730000007fc00050007000c060000071c06006f
:1007400000072c00060007003c060000074c0600ce
:1007500000075c00060007006c060000077c06002e
:1007600000078c00060007009c06000007ac06008e
:100770000007bc0006000700cc06000007dc0600ee
:100780000007ec0006000700fc060000070c07004d
:1007900000071c00070007002c070000073c0700ab
:1007a00000074c00070007005c070000076c07000b
:1007b00000077c00070007008c0700000000000015
:1007c00000003f0021212100212121003f000000e5
:1007d00000000000000000003f2121002121210035
:1007e000213f00000000000000000000003f210049
:1007f0002121210021213f00000000000000000015
:1008000000003f0021212100212121003f000000a4
:1008100000000000000000003f21210021212100f4
:10082000213f00000000000000000000003f210008
:100830002121210021213f000000000000000000d4
:1008400000003f0021212100212121003f00000064
:1008500000000000000000003f21210021212100b4
:10086000213f00000000000000000000003f2100c8
:100870002121210021213f00000000000000000094
:1008800000003f0021212100212121003f00000024
:1008900000000000000000003f2121002121210074
:1008a000213f00000000000000000000003f210088
:1008b0002121210021213f00000000000000000054
:1008c00000003f0021212100212121003f000000e4
:1008d00000000000000000003f2121002121210034
:1008e000213f00000000000000000000003f210048
:1008f0002121210021213f00000000000000000014
:1009000000003f0021212100212121003f000000a3
:1009100000000000000000003f21210021212100f3
:10092000213f00000000000000000000003f210007
:100930002121210021213f000000000000000000d3
:1009400000003f0021212100212121003f00000063
:1009500000000000000000003f21210021212100b3
:10096000213f00000000000000000000003f2100c7
:100970002121210021213f00000000000000000093
:1009800000003f0021212100212121003f00000023
:1009900000000000000000003f2121002121210073
:1009a000213f00000000000000000000003f210087
:1009b0002121210021213f00000000000000000053
:1009c00000003f0021212100212121003f000000e3
:1009d00000000000000000003f2121002121210033
:1009e000213f00000000000000000000003f210047
:1009f0002121210021213f00000000000000000013
:100a000000003f0021212100212121003f000000a2
:100a100000000000000000003f21210021212100f2
:100a2000213f00000000000000000000003f210006
:100a30002121210021213f000000000000000000d2
:100a400000003f0021212100212121003f00000062
:100a500000000000000000003f21210021212100b2
:100a6000213f00000000000000000000003f2100c6
:100a70002121210021213f00000000000000000092
:100a800000003f0021212100212121003f00000022
:100a900000000000000000003f2121002121210072
:100aa000213f00000000000000000000003f210086
:100ab0002121210021213f00000000000000000052
:100ac00000003f0021212100212121003f000000e2
:100ad00000000000000000003f2121002121210032
:100ae000213f00000000000000000000003f210046
:100af0002121210021213f00000000000000000012
:100b000000003f0021212100212121003f000000a1
:100b100000000000000000003f21210021212100f1
:100b2000213f00000000000000000000003f210005
:100b30002121210021213f000000000000000000d1
:100b400000003f0021212100212121003f00000061
:100b500000000000000000003f21210021212100b1
:100b6000213f00000000000000000000003f2100c5
:100b70002121210021213f00000000000000000091
:100b800000003f0021212100212121003f00000021
:100b900000000000000000003f2121002121210071
:100ba000213f00000000000000000000003f210085
:100bb0002121210021213f00000000000000000051
:100bc00000003f0021212100212121003f000000e1
:100bd00000000000000000003f2121002121210031
:100be000213f00000000000000000000003f210045
:100bf0002121210021213f00000000000000000011
:100c000000003f0021212100212121003f000000a0
:100c100000000000000000003f21210021212100f0
:100c2000213f00000000000000000000003f210004
:100c30002121210021213f000000000000000000d0
:100c400000003f0021212100212121003f00000060
:100c500000000000000000003f21210021212100b0
:100c6000213f00000000000000000000003f2100c4
:100c70002121210021213f00000000000000000090
:100c800000003f0021212100212121003f00000020
:100c900000000000000000003f2121002121210070
:100ca000213f00000000000000000000003f210084
:100cb0002121210021213f00000000000000000050
:100cc00000003f0021212100212121003f000000e0
:100cd00000000000000000003f2121002121210030
:100ce000213f00000000000000000000003f210044
:100cf0002121210021213f00000000000000000010
:100d000000003f0021212100212121003f0000009f
:100d100000000000000000003f21210021212100ef
:100d2000213f00000000000000000000003f210003
:100d30002121210021213f000000000000000000cf
:100d400000003f0021212100212121003f0000005f
:100d500000000000000000003f21210021212100af
:100d6000213f00000000000000000000003f2100c3
:100d70002121210021213f0000000000000000008f
:100d800000003f0021212100212121003f0000001f
:100d900000000000000000003f212100212121006f
:100da000213f00000000000000000000003f210083
:100db0002121210021213f0000000000000000004f
:100dc00000003f0021212100212121003f000000df
:100dd00000000000000000003f212100212121002f
:100de000213f00000000000000000000003f210043
:100df0002121210021213f0000000000000000000f
:100e000000003f0021212100212121003f0000009e
:100e100000000000000000003f21210021212100ee
:100e2000213f00000000000000000000003f210002
:100e30002121210021213f000000000000000000ce
:100e400000003f0021212100212121003f0000005e
:100e500000000000000000003f21210021212100ae
:100e6000213f00000000000000000000003f2100c2
:100e70002121210021213f0000000000000000008e
:100e800000003f0021212100212121003f0000001e
:100e900000000000000000003f212100212121006e
:100ea000213f00000000000000000000003f210082
:100eb0002121210021213f0000000000000000004e
:100ec00000003f0021212100212121003f000000de
:100ed00000000000000000003f212100212121002e
:100ee000213f00000000000000000000003f210042
:100ef0002121210021213f0000000000000000000e
:100f000000003f0021212100212121003f0000009d
:100f100000000000000000003f21210021212100ed
:100f2000213f00000000000000000000003f210001
:100f30002121210021213f000000000000000000cd
:100f400000003f0021212100212121003f0000005d
:100f500000000000000000003f21210021212100ad
:100f6000213f00000000000000000000003f2100c1
:100f70002121210021213f0000000000000000008d
:100f800000003f0021212100212121003f0000001d
:100f900000000000000000003f212100212121006d
:100fa000213f00000000000000000000003f210081
:100fb0002121210021213f0000000000000000004d
:100fc00000003f0021212100212121003f000000dd
:100fd00000000000001000003060000080000000f1
:040fe000000000000d
:020000040000fa
:100fe4000000fa00243a80000480a1000490a100cb
:100ff40004a0a100243a88004487a800353a800060
:10100400f41f2000848262000460210004827200c4
:10101400343a8800243980000400a0000410a100a0
:101024000420a100243988000082eb00f4398800f0
:10103400e538800004802f008482620004282000a8
:1010440004827200e4388800f538800004802f00a0
:1010540084826200041e200004827200f438880036
:10106400a538800004802f008482620004282000b8
:1010740004827200a4388800b538800004802f00f0
:1010840084826200041e200004827200b438880046
:101094000539800004802f008482620074322000ad
:1010a40004827200043988001539800004802f00fe
:1010b4008482620024212000048272001439880092
:1010c40026e7a8002647a9002667a9002627a80026
:1010d4002607a80026a7a9002687a90024c3b300d1
:1010e4000440780029e7b70074cab30004407800cc
:1010f40028e7b700c4c0b300044078002ce7b70069
:1011040044c1b300044078002ae7b70024c0b30008
:10111400044078002de7b70004c6b300044078000b
:101124002be7b70024c3b300044078002fe7b700cf
:1011340074cab300044078002ee7b700060021000b
:10114400070020000602be0004027800c4388800ac
:101154000002eb00d4388800243980000450a10038
:101164000460a1000470a1002439880024388000a0
:101174000450a1000460a1000470a1002438880078
:101184002727a8002707a80005e7a8002707a80025
:101194000080fa00000006000800fa00889fbe00e4
:1011a400243a80000480a1000490a10004a0a100be
:1011b400243a8800243a80000460a1000470a1004d
:1011c400243a88000002eb00142788000002eb0098
:1011d400242788000002eb00342788000002eb007b
:1011e400542788000002eb006427880014002000c4
:1011f40005002000048fbe001b0037001e02be0045
:10120400848fd2008582d2000402780004f0a10009
:1012140000002100010020000043eb000001d00089
:101224008403d000070241004220a80085824800c0
:101234004200a9004220ae004200a8000482d3006c
:10124400a70180000501780004027800a20188004b
:10125400064a7800a7018800140020000500200039
:101264001e0f42005e974a00f4fc26001500200081
:101274001e03be00840f5300858f5b00dfff360022
:1012840057ff07006022b80024079800350798002c
:101294006022b800048fbe006022b800048fbe0034
:1012a4000082eb000438880004002500143888000c
:1012b4000002eb000438880004102500143888006c
:1012c40008802000090020000802be000402780003
:1012d4000438880004202500143888002e02900069
:1012e40004388800a4302500143888002e029000a9
:1012f40004388800a4802500143888002e02900049
:101304007002420004388800a49025001438880034
:101314002e02900004388800a4a025001438880008
:101324000010270021002000070007002e02900073
:10133400be02900061024200e0824a002407980045
:0813440035079800d4ff3700c3
:020000040000fa
:10134c00f03fb1000180b10006003500ee0309004a
:10135c0000000000403fb1000180b100fbff3d00e8
:10136c001000b000203fb0000200350000800900e2
:08137c00000000000000060063
:020000040000fa
:020000040005f5
:0457f800ff99000015
:020000040000fa
:020000040005f5
:0457fc007f7f0000ab
:00000001FF
